{
  "address": "0x804b75072AB28AD2B7A5eA9bCCe2834619198a04",
  "abi": [
    {
      "inputs": [],
      "stateMutability": "nonpayable",
      "type": "constructor"
    },
    {
      "anonymous": false,
      "inputs": [
        {
          "indexed": true,
          "internalType": "address",
          "name": "owner",
          "type": "address"
        },
        {
          "indexed": true,
          "internalType": "address",
          "name": "approved",
          "type": "address"
        },
        {
          "indexed": true,
          "internalType": "uint256",
          "name": "tokenId",
          "type": "uint256"
        }
      ],
      "name": "Approval",
      "type": "event"
    },
    {
      "anonymous": false,
      "inputs": [
        {
          "indexed": true,
          "internalType": "address",
          "name": "owner",
          "type": "address"
        },
        {
          "indexed": true,
          "internalType": "address",
          "name": "operator",
          "type": "address"
        },
        {
          "indexed": false,
          "internalType": "bool",
          "name": "approved",
          "type": "bool"
        }
      ],
      "name": "ApprovalForAll",
      "type": "event"
    },
    {
      "anonymous": false,
      "inputs": [
        {
          "indexed": false,
          "internalType": "uint256",
          "name": "_fromTokenId",
          "type": "uint256"
        },
        {
          "indexed": false,
          "internalType": "uint256",
          "name": "_toTokenId",
          "type": "uint256"
        }
      ],
      "name": "BatchMetadataUpdate",
      "type": "event"
    },
    {
      "anonymous": false,
      "inputs": [
        {
          "indexed": false,
          "internalType": "uint256",
          "name": "_tokenId",
          "type": "uint256"
        }
      ],
      "name": "MetadataUpdate",
      "type": "event"
    },
    {
      "anonymous": false,
      "inputs": [
        {
          "indexed": true,
          "internalType": "address",
          "name": "previousOwner",
          "type": "address"
        },
        {
          "indexed": true,
          "internalType": "address",
          "name": "newOwner",
          "type": "address"
        }
      ],
      "name": "OwnershipTransferred",
      "type": "event"
    },
    {
      "anonymous": false,
      "inputs": [
        {
          "indexed": true,
          "internalType": "address",
          "name": "from",
          "type": "address"
        },
        {
          "indexed": true,
          "internalType": "address",
          "name": "to",
          "type": "address"
        },
        {
          "indexed": true,
          "internalType": "uint256",
          "name": "tokenId",
          "type": "uint256"
        }
      ],
      "name": "Transfer",
      "type": "event"
    },
    {
      "inputs": [
        {
          "internalType": "address",
          "name": "to",
          "type": "address"
        },
        {
          "internalType": "uint256",
          "name": "tokenId",
          "type": "uint256"
        }
      ],
      "name": "approve",
      "outputs": [],
      "stateMutability": "nonpayable",
      "type": "function"
    },
    {
      "inputs": [
        {
          "internalType": "address",
          "name": "owner",
          "type": "address"
        }
      ],
      "name": "balanceOf",
      "outputs": [
        {
          "internalType": "uint256",
          "name": "",
          "type": "uint256"
        }
      ],
      "stateMutability": "view",
      "type": "function"
    },
    {
      "inputs": [
        {
          "internalType": "uint256",
          "name": "tokenId",
          "type": "uint256"
        }
      ],
      "name": "getApproved",
      "outputs": [
        {
          "internalType": "address",
          "name": "",
          "type": "address"
        }
      ],
      "stateMutability": "view",
      "type": "function"
    },
    {
      "inputs": [
        {
          "internalType": "address",
          "name": "owner",
          "type": "address"
        },
        {
          "internalType": "address",
          "name": "operator",
          "type": "address"
        }
      ],
      "name": "isApprovedForAll",
      "outputs": [
        {
          "internalType": "bool",
          "name": "",
          "type": "bool"
        }
      ],
      "stateMutability": "view",
      "type": "function"
    },
    {
      "inputs": [
        {
          "internalType": "address",
          "name": "to",
          "type": "address"
        },
        {
          "internalType": "string",
          "name": "uri",
          "type": "string"
        }
      ],
      "name": "mintItem",
      "outputs": [
        {
          "internalType": "uint256",
          "name": "",
          "type": "uint256"
        }
      ],
      "stateMutability": "nonpayable",
      "type": "function"
    },
    {
      "inputs": [],
      "name": "name",
      "outputs": [
        {
          "internalType": "string",
          "name": "",
          "type": "string"
        }
      ],
      "stateMutability": "view",
      "type": "function"
    },
    {
      "inputs": [],
      "name": "owner",
      "outputs": [
        {
          "internalType": "address",
          "name": "",
          "type": "address"
        }
      ],
      "stateMutability": "view",
      "type": "function"
    },
    {
      "inputs": [
        {
          "internalType": "uint256",
          "name": "tokenId",
          "type": "uint256"
        }
      ],
      "name": "ownerOf",
      "outputs": [
        {
          "internalType": "address",
          "name": "",
          "type": "address"
        }
      ],
      "stateMutability": "view",
      "type": "function"
    },
    {
      "inputs": [],
      "name": "renounceOwnership",
      "outputs": [],
      "stateMutability": "nonpayable",
      "type": "function"
    },
    {
      "inputs": [
        {
          "internalType": "address",
          "name": "from",
          "type": "address"
        },
        {
          "internalType": "address",
          "name": "to",
          "type": "address"
        },
        {
          "internalType": "uint256",
          "name": "tokenId",
          "type": "uint256"
        }
      ],
      "name": "safeTransferFrom",
      "outputs": [],
      "stateMutability": "nonpayable",
      "type": "function"
    },
    {
      "inputs": [
        {
          "internalType": "address",
          "name": "from",
          "type": "address"
        },
        {
          "internalType": "address",
          "name": "to",
          "type": "address"
        },
        {
          "internalType": "uint256",
          "name": "tokenId",
          "type": "uint256"
        },
        {
          "internalType": "bytes",
          "name": "data",
          "type": "bytes"
        }
      ],
      "name": "safeTransferFrom",
      "outputs": [],
      "stateMutability": "nonpayable",
      "type": "function"
    },
    {
      "inputs": [
        {
          "internalType": "address",
          "name": "operator",
          "type": "address"
        },
        {
          "internalType": "bool",
          "name": "approved",
          "type": "bool"
        }
      ],
      "name": "setApprovalForAll",
      "outputs": [],
      "stateMutability": "nonpayable",
      "type": "function"
    },
    {
      "inputs": [
        {
          "internalType": "bytes4",
          "name": "interfaceId",
          "type": "bytes4"
        }
      ],
      "name": "supportsInterface",
      "outputs": [
        {
          "internalType": "bool",
          "name": "",
          "type": "bool"
        }
      ],
      "stateMutability": "view",
      "type": "function"
    },
    {
      "inputs": [],
      "name": "symbol",
      "outputs": [
        {
          "internalType": "string",
          "name": "",
          "type": "string"
        }
      ],
      "stateMutability": "view",
      "type": "function"
    },
    {
      "inputs": [
        {
          "internalType": "uint256",
          "name": "index",
          "type": "uint256"
        }
      ],
      "name": "tokenByIndex",
      "outputs": [
        {
          "internalType": "uint256",
          "name": "",
          "type": "uint256"
        }
      ],
      "stateMutability": "view",
      "type": "function"
    },
    {
      "inputs": [],
      "name": "tokenIdCounter",
      "outputs": [
        {
          "internalType": "uint256",
          "name": "_value",
          "type": "uint256"
        }
      ],
      "stateMutability": "view",
      "type": "function"
    },
    {
      "inputs": [
        {
          "internalType": "address",
          "name": "owner",
          "type": "address"
        },
        {
          "internalType": "uint256",
          "name": "index",
          "type": "uint256"
        }
      ],
      "name": "tokenOfOwnerByIndex",
      "outputs": [
        {
          "internalType": "uint256",
          "name": "",
          "type": "uint256"
        }
      ],
      "stateMutability": "view",
      "type": "function"
    },
    {
      "inputs": [
        {
          "internalType": "uint256",
          "name": "tokenId",
          "type": "uint256"
        }
      ],
      "name": "tokenURI",
      "outputs": [
        {
          "internalType": "string",
          "name": "",
          "type": "string"
        }
      ],
      "stateMutability": "view",
      "type": "function"
    },
    {
      "inputs": [],
      "name": "totalSupply",
      "outputs": [
        {
          "internalType": "uint256",
          "name": "",
          "type": "uint256"
        }
      ],
      "stateMutability": "view",
      "type": "function"
    },
    {
      "inputs": [
        {
          "internalType": "address",
          "name": "from",
          "type": "address"
        },
        {
          "internalType": "address",
          "name": "to",
          "type": "address"
        },
        {
          "internalType": "uint256",
          "name": "tokenId",
          "type": "uint256"
        }
      ],
      "name": "transferFrom",
      "outputs": [],
      "stateMutability": "nonpayable",
      "type": "function"
    },
    {
      "inputs": [
        {
          "internalType": "address",
          "name": "newOwner",
          "type": "address"
        }
      ],
      "name": "transferOwnership",
      "outputs": [],
      "stateMutability": "nonpayable",
      "type": "function"
    }
  ],
  "transactionHash": "0xd957e2878a89bd4f351c32ecc1c8384b6cc395a37148562dd63b4a8f0c518042",
  "args": [],
  "numDeployments": 1,
  "solcInputHash": "4aabaa7ebe98c1da0ff16b3ab1df0685",
  "bytecode": "0x60806040523480156200001157600080fd5b506040518060400160405280600f81526020016e596f7572436f6c6c65637469626c6560881b815250604051806040016040528060038152602001622ca1a160e91b815250816000908162000067919062000194565b50600162000076828262000194565b505050620000936200008d6200009960201b60201c565b6200009d565b62000260565b3390565b600b80546001600160a01b038381166001600160a01b0319831681179093556040519116919082907f8be0079c531659141344cd1fd0a4f28419497f9722a3daafe3b4186f6b6457e090600090a35050565b634e487b7160e01b600052604160045260246000fd5b600181811c908216806200011a57607f821691505b6020821081036200013b57634e487b7160e01b600052602260045260246000fd5b50919050565b601f8211156200018f57600081815260208120601f850160051c810160208610156200016a5750805b601f850160051c820191505b818110156200018b5782815560010162000176565b5050505b505050565b81516001600160401b03811115620001b057620001b0620000ef565b620001c881620001c1845462000105565b8462000141565b602080601f831160018114620002005760008415620001e75750858301515b600019600386901b1c1916600185901b1785556200018b565b600085815260208120601f198616915b82811015620002315788860151825594840194600190910190840162000210565b5085821015620002505787850151600019600388901b60f8161c191681555b5050505050600190811b01905550565b611d6f80620002706000396000f3fe608060405234801561001057600080fd5b50600436106101375760003560e01c80636352211e116100b857806398bdf6f51161007c57806398bdf6f514610275578063a22cb4651461027f578063b88d4fde14610292578063c87b56dd146102a5578063e985e9c5146102b8578063f2fde38b146102f457600080fd5b80636352211e1461022e57806370a0823114610241578063715018a6146102545780638da5cb5b1461025c57806395d89b411461026d57600080fd5b806318160ddd116100ff57806318160ddd146101da57806323b872dd146101e25780632f745c59146101f557806342842e0e146102085780634f6ccce71461021b57600080fd5b806301ffc9a71461013c57806306fdde0314610164578063081812fc14610179578063095ea7b3146101a4578063110bcd45146101b9575b600080fd5b61014f61014a366004611728565b610307565b60405190151581526020015b60405180910390f35b61016c610318565b60405161015b9190611795565b61018c6101873660046117a8565b6103aa565b6040516001600160a01b03909116815260200161015b565b6101b76101b23660046117dd565b6103d1565b005b6101cc6101c7366004611893565b6104eb565b60405190815260200161015b565b6008546101cc565b6101b76101f03660046118f5565b610523565b6101cc6102033660046117dd565b610554565b6101b76102163660046118f5565b6105ea565b6101cc6102293660046117a8565b610605565b61018c61023c3660046117a8565b610698565b6101cc61024f366004611931565b6106f8565b6101b761077e565b600b546001600160a01b031661018c565b61016c610792565b600c546101cc9081565b6101b761028d36600461194c565b6107a1565b6101b76102a0366004611988565b6107b0565b61016c6102b33660046117a8565b6107e8565b61014f6102c6366004611a04565b6001600160a01b03918216600090815260056020908152604080832093909416825291909152205460ff1690565b6101b7610302366004611931565b6107f3565b60006103128261086c565b92915050565b60606000805461032790611a37565b80601f016020809104026020016040519081016040528092919081815260200182805461035390611a37565b80156103a05780601f10610375576101008083540402835291602001916103a0565b820191906000526020600020905b81548152906001019060200180831161038357829003601f168201915b5050505050905090565b60006103b582610891565b506000908152600460205260409020546001600160a01b031690565b60006103dc82610698565b9050806001600160a01b0316836001600160a01b03160361044e5760405162461bcd60e51b815260206004820152602160248201527f4552433732313a20617070726f76616c20746f2063757272656e74206f776e656044820152603960f91b60648201526084015b60405180910390fd5b336001600160a01b038216148061046a575061046a81336102c6565b6104dc5760405162461bcd60e51b815260206004820152603d60248201527f4552433732313a20617070726f76652063616c6c6572206973206e6f7420746f60448201527f6b656e206f776e6572206f7220617070726f76656420666f7220616c6c0000006064820152608401610445565b6104e683836108f0565b505050565b60006104fb600c80546001019055565b6000610506600c5490565b9050610512848261095e565b61051c8184610978565b9392505050565b61052d3382610a43565b6105495760405162461bcd60e51b815260040161044590611a71565b6104e6838383610ac2565b600061055f836106f8565b82106105c15760405162461bcd60e51b815260206004820152602b60248201527f455243373231456e756d657261626c653a206f776e657220696e646578206f7560448201526a74206f6620626f756e647360a81b6064820152608401610445565b506001600160a01b03919091166000908152600660209081526040808320938352929052205490565b6104e6838383604051806020016040528060008152506107b0565b600061061060085490565b82106106735760405162461bcd60e51b815260206004820152602c60248201527f455243373231456e756d657261626c653a20676c6f62616c20696e646578206f60448201526b7574206f6620626f756e647360a01b6064820152608401610445565b6008828154811061068657610686611abe565b90600052602060002001549050919050565b6000818152600260205260408120546001600160a01b0316806103125760405162461bcd60e51b8152602060048201526018602482015277115490cdcc8c4e881a5b9d985b1a59081d1bdad95b88125160421b6044820152606401610445565b60006001600160a01b0382166107625760405162461bcd60e51b815260206004820152602960248201527f4552433732313a2061646472657373207a65726f206973206e6f7420612076616044820152683634b21037bbb732b960b91b6064820152608401610445565b506001600160a01b031660009081526003602052604090205490565b610786610c33565b6107906000610c8d565b565b60606001805461032790611a37565b6107ac338383610cdf565b5050565b6107ba3383610a43565b6107d65760405162461bcd60e51b815260040161044590611a71565b6107e284848484610dad565b50505050565b606061031282610de0565b6107fb610c33565b6001600160a01b0381166108605760405162461bcd60e51b815260206004820152602660248201527f4f776e61626c653a206e6577206f776e657220697320746865207a65726f206160448201526564647265737360d01b6064820152608401610445565b61086981610c8d565b50565b60006001600160e01b03198216632483248360e11b1480610312575061031282610f05565b6000818152600260205260409020546001600160a01b03166108695760405162461bcd60e51b8152602060048201526018602482015277115490cdcc8c4e881a5b9d985b1a59081d1bdad95b88125160421b6044820152606401610445565b600081815260046020526040902080546001600160a01b0319166001600160a01b038416908117909155819061092582610698565b6001600160a01b03167f8c5be1e5ebec7d5bd14f71427d1e84f3dd0314c0f7b2291e5b200ac8c7c3b92560405160405180910390a45050565b6107ac828260405180602001604052806000815250610f2a565b6000828152600260205260409020546001600160a01b03166109f35760405162461bcd60e51b815260206004820152602e60248201527f45524337323155524953746f726167653a2055524920736574206f66206e6f6e60448201526d32bc34b9ba32b73a103a37b5b2b760911b6064820152608401610445565b6000828152600a60205260409020610a0b8282611b22565b506040518281527ff8e1a15aba9398e019f0b49df1a4fde98ee17ae345cb5f6b5e2c27f5033e8ce79060200160405180910390a15050565b600080610a4f83610698565b9050806001600160a01b0316846001600160a01b03161480610a9657506001600160a01b0380821660009081526005602090815260408083209388168352929052205460ff165b80610aba5750836001600160a01b0316610aaf846103aa565b6001600160a01b0316145b949350505050565b826001600160a01b0316610ad582610698565b6001600160a01b031614610afb5760405162461bcd60e51b815260040161044590611be2565b6001600160a01b038216610b5d5760405162461bcd60e51b8152602060048201526024808201527f4552433732313a207472616e7366657220746f20746865207a65726f206164646044820152637265737360e01b6064820152608401610445565b610b6a8383836001610f5d565b826001600160a01b0316610b7d82610698565b6001600160a01b031614610ba35760405162461bcd60e51b815260040161044590611be2565b600081815260046020908152604080832080546001600160a01b03199081169091556001600160a01b0387811680865260038552838620805460001901905590871680865283862080546001019055868652600290945282852080549092168417909155905184937fddf252ad1be2c89b69c2b068fc378daa952ba7f163c4a11628f55a4df523b3ef91a4505050565b600b546001600160a01b031633146107905760405162461bcd60e51b815260206004820181905260248201527f4f776e61626c653a2063616c6c6572206973206e6f7420746865206f776e65726044820152606401610445565b600b80546001600160a01b038381166001600160a01b0319831681179093556040519116919082907f8be0079c531659141344cd1fd0a4f28419497f9722a3daafe3b4186f6b6457e090600090a35050565b816001600160a01b0316836001600160a01b031603610d405760405162461bcd60e51b815260206004820152601960248201527f4552433732313a20617070726f766520746f2063616c6c6572000000000000006044820152606401610445565b6001600160a01b03838116600081815260056020908152604080832094871680845294825291829020805460ff191686151590811790915591519182527f17307eab39ab6107e8899845ad3d59bd9653f200f220920489ca2b5937696c31910160405180910390a3505050565b610db8848484610ac2565b610dc484848484610f69565b6107e25760405162461bcd60e51b815260040161044590611c27565b6060610deb82610891565b6000828152600a602052604081208054610e0490611a37565b80601f0160208091040260200160405190810160405280929190818152602001828054610e3090611a37565b8015610e7d5780601f10610e5257610100808354040283529160200191610e7d565b820191906000526020600020905b815481529060010190602001808311610e6057829003601f168201915b505050505090506000610eb860408051808201909152601581527468747470733a2f2f697066732e696f2f697066732f60581b602082015290565b90508051600003610eca575092915050565b815115610efc578082604051602001610ee4929190611c79565b60405160208183030381529060405292505050919050565b610aba8461106a565b60006001600160e01b0319821663780e9d6360e01b14806103125750610312826110fa565b610f34838361114a565b610f416000848484610f69565b6104e65760405162461bcd60e51b815260040161044590611c27565b6107e2848484846112e3565b60006001600160a01b0384163b1561105f57604051630a85bd0160e11b81526001600160a01b0385169063150b7a0290610fad903390899088908890600401611ca8565b6020604051808303816000875af1925050508015610fe8575060408051601f3d908101601f19168201909252610fe591810190611ce5565b60015b611045573d808015611016576040519150601f19603f3d011682016040523d82523d6000602084013e61101b565b606091505b50805160000361103d5760405162461bcd60e51b815260040161044590611c27565b805181602001fd5b6001600160e01b031916630a85bd0160e11b149050610aba565b506001949350505050565b606061107582610891565b60006110a960408051808201909152601581527468747470733a2f2f697066732e696f2f697066732f60581b602082015290565b905060008151116110c9576040518060200160405280600081525061051c565b806110d384611417565b6040516020016110e4929190611c79565b6040516020818303038152906040529392505050565b60006001600160e01b031982166380ac58cd60e01b148061112b57506001600160e01b03198216635b5e139f60e01b145b8061031257506301ffc9a760e01b6001600160e01b0319831614610312565b6001600160a01b0382166111a05760405162461bcd60e51b815260206004820181905260248201527f4552433732313a206d696e7420746f20746865207a65726f20616464726573736044820152606401610445565b6000818152600260205260409020546001600160a01b0316156112055760405162461bcd60e51b815260206004820152601c60248201527f4552433732313a20746f6b656e20616c7265616479206d696e746564000000006044820152606401610445565b611213600083836001610f5d565b6000818152600260205260409020546001600160a01b0316156112785760405162461bcd60e51b815260206004820152601c60248201527f4552433732313a20746f6b656e20616c7265616479206d696e746564000000006044820152606401610445565b6001600160a01b038216600081815260036020908152604080832080546001019055848352600290915280822080546001600160a01b0319168417905551839291907fddf252ad1be2c89b69c2b068fc378daa952ba7f163c4a11628f55a4df523b3ef908290a45050565b60018111156113525760405162461bcd60e51b815260206004820152603560248201527f455243373231456e756d657261626c653a20636f6e7365637574697665207472604482015274185b9cd9995c9cc81b9bdd081cdd5c1c1bdc9d1959605a1b6064820152608401610445565b816001600160a01b0385166113ae576113a981600880546000838152600960205260408120829055600182018355919091527ff3f7a9fe364faab93b216da50a3214154f22a0a2b415b23a84c8169e8b636ee30155565b6113d1565b836001600160a01b0316856001600160a01b0316146113d1576113d185826114aa565b6001600160a01b0384166113ed576113e881611547565b611410565b846001600160a01b0316846001600160a01b0316146114105761141084826115f6565b5050505050565b606060006114248361163a565b600101905060008167ffffffffffffffff81111561144457611444611807565b6040519080825280601f01601f19166020018201604052801561146e576020820181803683370190505b5090508181016020015b600019016f181899199a1a9b1b9c1cb0b131b232b360811b600a86061a8153600a850494508461147857509392505050565b600060016114b7846106f8565b6114c19190611d02565b600083815260076020526040902054909150808214611514576001600160a01b03841660009081526006602090815260408083208584528252808320548484528184208190558352600790915290208190555b5060009182526007602090815260408084208490556001600160a01b039094168352600681528383209183525290812055565b60085460009061155990600190611d02565b6000838152600960205260408120546008805493945090928490811061158157611581611abe565b9060005260206000200154905080600883815481106115a2576115a2611abe565b60009182526020808320909101929092558281526009909152604080822084905585825281205560088054806115da576115da611d23565b6001900381819060005260206000200160009055905550505050565b6000611601836106f8565b6001600160a01b039093166000908152600660209081526040808320868452825280832085905593825260079052919091209190915550565b60008072184f03e93ff9f4daa797ed6e38ed64bf6a1f0160401b83106116795772184f03e93ff9f4daa797ed6e38ed64bf6a1f0160401b830492506040015b6d04ee2d6d415b85acef810000000083106116a5576d04ee2d6d415b85acef8100000000830492506020015b662386f26fc1000083106116c357662386f26fc10000830492506010015b6305f5e10083106116db576305f5e100830492506008015b61271083106116ef57612710830492506004015b60648310611701576064830492506002015b600a83106103125760010192915050565b6001600160e01b03198116811461086957600080fd5b60006020828403121561173a57600080fd5b813561051c81611712565b60005b83811015611760578181015183820152602001611748565b50506000910152565b60008151808452611781816020860160208601611745565b601f01601f19169290920160200192915050565b60208152600061051c6020830184611769565b6000602082840312156117ba57600080fd5b5035919050565b80356001600160a01b03811681146117d857600080fd5b919050565b600080604083850312156117f057600080fd5b6117f9836117c1565b946020939093013593505050565b634e487b7160e01b600052604160045260246000fd5b600067ffffffffffffffff8084111561183857611838611807565b604051601f8501601f19908116603f0116810190828211818310171561186057611860611807565b8160405280935085815286868601111561187957600080fd5b858560208301376000602087830101525050509392505050565b600080604083850312156118a657600080fd5b6118af836117c1565b9150602083013567ffffffffffffffff8111156118cb57600080fd5b8301601f810185136118dc57600080fd5b6118eb8582356020840161181d565b9150509250929050565b60008060006060848603121561190a57600080fd5b611913846117c1565b9250611921602085016117c1565b9150604084013590509250925092565b60006020828403121561194357600080fd5b61051c826117c1565b6000806040838503121561195f57600080fd5b611968836117c1565b91506020830135801515811461197d57600080fd5b809150509250929050565b6000806000806080858703121561199e57600080fd5b6119a7856117c1565b93506119b5602086016117c1565b925060408501359150606085013567ffffffffffffffff8111156119d857600080fd5b8501601f810187136119e957600080fd5b6119f88782356020840161181d565b91505092959194509250565b60008060408385031215611a1757600080fd5b611a20836117c1565b9150611a2e602084016117c1565b90509250929050565b600181811c90821680611a4b57607f821691505b602082108103611a6b57634e487b7160e01b600052602260045260246000fd5b50919050565b6020808252602d908201527f4552433732313a2063616c6c6572206973206e6f7420746f6b656e206f776e6560408201526c1c881bdc88185c1c1c9bdd9959609a1b606082015260800190565b634e487b7160e01b600052603260045260246000fd5b601f8211156104e657600081815260208120601f850160051c81016020861015611afb5750805b601f850160051c820191505b81811015611b1a57828155600101611b07565b505050505050565b815167ffffffffffffffff811115611b3c57611b3c611807565b611b5081611b4a8454611a37565b84611ad4565b602080601f831160018114611b855760008415611b6d5750858301515b600019600386901b1c1916600185901b178555611b1a565b600085815260208120601f198616915b82811015611bb457888601518255948401946001909101908401611b95565b5085821015611bd25787850151600019600388901b60f8161c191681555b5050505050600190811b01905550565b60208082526025908201527f4552433732313a207472616e736665722066726f6d20696e636f72726563742060408201526437bbb732b960d91b606082015260800190565b60208082526032908201527f4552433732313a207472616e7366657220746f206e6f6e20455243373231526560408201527131b2b4bb32b91034b6b83632b6b2b73a32b960711b606082015260800190565b60008351611c8b818460208801611745565b835190830190611c9f818360208801611745565b01949350505050565b6001600160a01b0385811682528416602082015260408101839052608060608201819052600090611cdb90830184611769565b9695505050505050565b600060208284031215611cf757600080fd5b815161051c81611712565b8181038181111561031257634e487b7160e01b600052601160045260246000fd5b634e487b7160e01b600052603160045260246000fdfea26469706673582212203e2ebc33e126c3e196ade2c43cb63cb6ff5dc7864d303e7c5a84a26304d5325964736f6c63430008140033",
  "devdoc": {
    "events": {
      "Approval(address,address,uint256)": {
        "details": "Emitted when `owner` enables `approved` to manage the `tokenId` token."
      },
      "ApprovalForAll(address,address,bool)": {
        "details": "Emitted when `owner` enables or disables (`approved`) `operator` to manage all of its assets."
      },
      "BatchMetadataUpdate(uint256,uint256)": {
        "details": "This event emits when the metadata of a range of tokens is changed. So that the third-party platforms such as NFT market could timely update the images and related attributes of the NFTs."
      },
      "MetadataUpdate(uint256)": {
        "details": "This event emits when the metadata of a token is changed. So that the third-party platforms such as NFT market could timely update the images and related attributes of the NFT."
      },
      "Transfer(address,address,uint256)": {
        "details": "Emitted when `tokenId` token is transferred from `from` to `to`."
      }
    },
    "kind": "dev",
    "methods": {
      "approve(address,uint256)": {
        "details": "See {IERC721-approve}."
      },
      "balanceOf(address)": {
        "details": "See {IERC721-balanceOf}."
      },
      "getApproved(uint256)": {
        "details": "See {IERC721-getApproved}."
      },
      "isApprovedForAll(address,address)": {
        "details": "See {IERC721-isApprovedForAll}."
      },
      "name()": {
        "details": "See {IERC721Metadata-name}."
      },
      "owner()": {
        "details": "Returns the address of the current owner."
      },
      "ownerOf(uint256)": {
        "details": "See {IERC721-ownerOf}."
      },
      "renounceOwnership()": {
        "details": "Leaves the contract without owner. It will not be possible to call `onlyOwner` functions. Can only be called by the current owner. NOTE: Renouncing ownership will leave the contract without an owner, thereby disabling any functionality that is only available to the owner."
      },
      "safeTransferFrom(address,address,uint256)": {
        "details": "See {IERC721-safeTransferFrom}."
      },
      "safeTransferFrom(address,address,uint256,bytes)": {
        "details": "See {IERC721-safeTransferFrom}."
      },
      "setApprovalForAll(address,bool)": {
        "details": "See {IERC721-setApprovalForAll}."
      },
      "symbol()": {
        "details": "See {IERC721Metadata-symbol}."
      },
      "tokenByIndex(uint256)": {
        "details": "See {IERC721Enumerable-tokenByIndex}."
      },
      "tokenOfOwnerByIndex(address,uint256)": {
        "details": "See {IERC721Enumerable-tokenOfOwnerByIndex}."
      },
      "totalSupply()": {
        "details": "See {IERC721Enumerable-totalSupply}."
      },
      "transferFrom(address,address,uint256)": {
        "details": "See {IERC721-transferFrom}."
      },
      "transferOwnership(address)": {
        "details": "Transfers ownership of the contract to a new account (`newOwner`). Can only be called by the current owner."
      }
    },
    "version": 1
  },
  "userdoc": {
    "kind": "user",
    "methods": {},
    "version": 1
  },
  "storageLayout": {
    "storage": [
      {
        "astId": 166,
        "contract": "contracts/YourCollectible.sol:YourCollectible",
        "label": "_name",
        "offset": 0,
        "slot": "0",
        "type": "t_string_storage"
      },
      {
        "astId": 168,
        "contract": "contracts/YourCollectible.sol:YourCollectible",
        "label": "_symbol",
        "offset": 0,
        "slot": "1",
        "type": "t_string_storage"
      },
      {
        "astId": 172,
        "contract": "contracts/YourCollectible.sol:YourCollectible",
        "label": "_owners",
        "offset": 0,
        "slot": "2",
        "type": "t_mapping(t_uint256,t_address)"
      },
      {
        "astId": 176,
        "contract": "contracts/YourCollectible.sol:YourCollectible",
        "label": "_balances",
        "offset": 0,
        "slot": "3",
        "type": "t_mapping(t_address,t_uint256)"
      },
      {
        "astId": 180,
        "contract": "contracts/YourCollectible.sol:YourCollectible",
        "label": "_tokenApprovals",
        "offset": 0,
        "slot": "4",
        "type": "t_mapping(t_uint256,t_address)"
      },
      {
        "astId": 186,
        "contract": "contracts/YourCollectible.sol:YourCollectible",
        "label": "_operatorApprovals",
        "offset": 0,
        "slot": "5",
        "type": "t_mapping(t_address,t_mapping(t_address,t_bool))"
      },
      {
        "astId": 1216,
        "contract": "contracts/YourCollectible.sol:YourCollectible",
        "label": "_ownedTokens",
        "offset": 0,
        "slot": "6",
        "type": "t_mapping(t_address,t_mapping(t_uint256,t_uint256))"
      },
      {
        "astId": 1220,
        "contract": "contracts/YourCollectible.sol:YourCollectible",
        "label": "_ownedTokensIndex",
        "offset": 0,
        "slot": "7",
        "type": "t_mapping(t_uint256,t_uint256)"
      },
      {
        "astId": 1223,
        "contract": "contracts/YourCollectible.sol:YourCollectible",
        "label": "_allTokens",
        "offset": 0,
        "slot": "8",
        "type": "t_array(t_uint256)dyn_storage"
      },
      {
        "astId": 1227,
        "contract": "contracts/YourCollectible.sol:YourCollectible",
        "label": "_allTokensIndex",
        "offset": 0,
        "slot": "9",
        "type": "t_mapping(t_uint256,t_uint256)"
      },
      {
        "astId": 1571,
        "contract": "contracts/YourCollectible.sol:YourCollectible",
        "label": "_tokenURIs",
        "offset": 0,
        "slot": "10",
        "type": "t_mapping(t_uint256,t_string_storage)"
      },
      {
        "astId": 7,
        "contract": "contracts/YourCollectible.sol:YourCollectible",
        "label": "_owner",
        "offset": 0,
        "slot": "11",
        "type": "t_address"
      },
      {
        "astId": 3461,
        "contract": "contracts/YourCollectible.sol:YourCollectible",
        "label": "tokenIdCounter",
        "offset": 0,
        "slot": "12",
        "type": "t_struct(Counter)2135_storage"
      }
    ],
    "types": {
      "t_address": {
        "encoding": "inplace",
        "label": "address",
        "numberOfBytes": "20"
      },
      "t_array(t_uint256)dyn_storage": {
        "base": "t_uint256",
        "encoding": "dynamic_array",
        "label": "uint256[]",
        "numberOfBytes": "32"
      },
      "t_bool": {
        "encoding": "inplace",
        "label": "bool",
        "numberOfBytes": "1"
      },
      "t_mapping(t_address,t_bool)": {
        "encoding": "mapping",
        "key": "t_address",
        "label": "mapping(address => bool)",
        "numberOfBytes": "32",
        "value": "t_bool"
      },
      "t_mapping(t_address,t_mapping(t_address,t_bool))": {
        "encoding": "mapping",
        "key": "t_address",
        "label": "mapping(address => mapping(address => bool))",
        "numberOfBytes": "32",
        "value": "t_mapping(t_address,t_bool)"
      },
      "t_mapping(t_address,t_mapping(t_uint256,t_uint256))": {
        "encoding": "mapping",
        "key": "t_address",
        "label": "mapping(address => mapping(uint256 => uint256))",
        "numberOfBytes": "32",
        "value": "t_mapping(t_uint256,t_uint256)"
      },
      "t_mapping(t_address,t_uint256)": {
        "encoding": "mapping",
        "key": "t_address",
        "label": "mapping(address => uint256)",
        "numberOfBytes": "32",
        "value": "t_uint256"
      },
      "t_mapping(t_uint256,t_address)": {
        "encoding": "mapping",
        "key": "t_uint256",
        "label": "mapping(uint256 => address)",
        "numberOfBytes": "32",
        "value": "t_address"
      },
      "t_mapping(t_uint256,t_string_storage)": {
        "encoding": "mapping",
        "key": "t_uint256",
        "label": "mapping(uint256 => string)",
        "numberOfBytes": "32",
        "value": "t_string_storage"
      },
      "t_mapping(t_uint256,t_uint256)": {
        "encoding": "mapping",
        "key": "t_uint256",
        "label": "mapping(uint256 => uint256)",
        "numberOfBytes": "32",
        "value": "t_uint256"
      },
      "t_string_storage": {
        "encoding": "bytes",
        "label": "string",
        "numberOfBytes": "32"
      },
      "t_struct(Counter)2135_storage": {
        "encoding": "inplace",
        "label": "struct Counters.Counter",
        "members": [
          {
            "astId": 2134,
            "contract": "contracts/YourCollectible.sol:YourCollectible",
            "label": "_value",
            "offset": 0,
            "slot": "0",
            "type": "t_uint256"
          }
        ],
        "numberOfBytes": "32"
      },
      "t_uint256": {
        "encoding": "inplace",
        "label": "uint256",
        "numberOfBytes": "32"
      }
    }
  }
}